:020000040800F2
:10000000503B0020010100084D120008E9100008D3
:10001000B1110008510200081D4400080000000052
:100020000000000000000000000000007141000816
:10003000E903000800000000C30100087122000865
:100040001B0100081B0100081B0100081B01000820
:100050001B0100081B0100081B0100081B01000810
:100060001B0100081B0100081B0100081B01000800
:100070001B0100081B0100081B0100081B010008F0
:100080001B0100081B0100081B0100081B010008E0
:100090001B0100081B0100081B0100081B010008D0
:1000A0001B0100081B0100081B0100081B010008C0
:1000B0001B0100081B0100081B0100081B010008B0
:1000C0001B0100081B0100081B0100081B010008A0
:1000D0001B010008114400081B0100081B01000857
:1000E0001B0100081B0100081B010008DFF80CD0F1
:1000F00000F044F8004800475D450008503B0020F0
:100100000648804706480047FEE7FEE7FEE7FEE7B1
:10011000FEE7FEE7FEE7FEE7FEE7FEE7C141000877
:10012000ED00000872B6704762B67047EFF31080BA
:1001300072B6704780F31088704730BF704720BF99
:100140007047B0FA80F0704790FAA0F0B0FA80F0F3
:10015000704790FAA0F07047D2B201E000F8012B8E
:10016000491EFBD270470022F6E710B513460A4637
:1001700004461946FFF7F0FF204610BD064C074D18
:1001800006E0E06840F0010394E807009847103467
:10019000AC42F6D3FFF7AEFF0C4800082C4800082D
:1001A00018484FF0FF010170002080F309881648BD
:1001B000016881F3088815484FF08051016062B6EC
:1001C000FEE772B6EFF3098028B1203880E8F00F1F
:1001D0000F490968086000B50E4880475DF804EBD8
:1001E0000D480E490A78027009480D490A680260F4
:1001F000106890E8F00F203080F309884EF0040E6C
:1002000062B6704722ED00E00001002004ED00E03E
:10021000F8000020451F00088A0000208B00002005
:10022000FC00002010B500F005F8BDE8104000F01B
:100230005DBF000010B500F06BFB04490968BDE824
:100240001040B0FBF1F002F02BB80000E0470008CE
:10025000FEE70000054910B50020486000F0A6F850
:1002600000F006F8BDE8104000F086B8100000204D
:100270002DE9F041104D002427462C806C80AC60A5
:10028000EC606C61AC612C61FFF750FF804600268A
:100290006C6100F049F800F057F86869761C360484
:1002A0000744360CF4D0C5E904744046AC61BDE89F
:1002B000F041FFF73FBF000010000020034909692B
:1002C000884201D9401A7047002070471000002072
:1002D00010B5FFF72BFF04494C69FFF72BFF2046B1
:1002E000BDE81040FFF7EABF1000002010B5FFF78F
:1002F000EFFF0446FFF71AFF034A00215161FFF7A1
:1003000019FF204610BD00001000002010B5FFF7B7
:100310000DFF04498C69FFF70DFF2046BDE8104032
:10032000FFF7CCBF1000002010B5064C2088401C01
:100330002080608810B900F051F8A0606088401CEF
:10034000608010BD1000002010B50A4C6088401E6F
:100350000004000C60800CD100F040F8E060A1685F
:10036000401A6169814200D26061A169814200D274
:10037000A06110BD1000002010B5FFF7D7FE0446A5
:10038000FFF7D2FF1021054800F013FFFFF7DCFF55
:100390002046BDE81040FFF7CDBE0000F008002069
:1003A000014948607047000010000020094810B55E
:1003B000016841F0807101600748002141600168D7
:1003C00041F00101016000F0A3FABDE81040FFF721
:1003D000E7BF0000FCED00E0001000E001484068CD
:1003E00070470000001000E07047704710B590F8AB
:1003F00021100022022905D00421816380F82020E9
:10040000012010BD01680B6823F00E030B6001682A
:100410000B6823F001030B6090F84030C46B01219E
:1004200001FA03F3636080F8211080F82020104661
:1004300010BD000010B590F821100024022903D04F
:100440000421816301243DE001680A6822F00E0264
:100450000A6001680A6822F001020A601A4A01680B
:10046000914201D1012121E0174A1432914201D178
:1004700010211BE0144A2832914201D1891515E060
:10048000114A3C32914201D189140FE00E4A503298
:10049000914202D14FF4803108E00B4A643291421C
:1004A00002D14FF4801101E04FF08071064A083A02
:1004B0005160012180F82110002180F82010416B4B
:1004C00001B18847204610BD080002402DE9F84FD1
:1004D000DFF8B8910024A9F1040B23460F2709F196
:1004E000040AABF1040EC9E00125A5402A40AA4246
:1004F0007DD1674ED1F804C0ACEB0608B44532D0CC
:1005000014DCBCF1030F3AD009DCBCF1000F2AD097
:10051000BCF1010F1CD0BCF1020F31D11DE0BCF1C8
:10052000110F17D0BCF1120F2AD119E0B8F5881FAE
:1005300019D006DCB8F5803F15D0B8F5801F1FD163
:1005400011E0B8F5001F0ED0B8F5041F18D10AE06D
:10055000CB6815E0CB681B1D12E0CB6808330FE0B9
:10056000CB680C330CE08B682BB1012B4FF00803E8
:1005700003D0456104E0042302E0056100E00023AC
:10058000FF2A01D8064601E000F104064FEA84057F
:1005900001D9A5F12005D6F8008007FA05FC28EA64
:1005A0000C0803FA05F548EA0508C6F800804D680E
:1005B000ED0062D5374DAE6946F00106AE61AD691A
:1005C00024F0030605F001050095334D06EB050CFC
:1005D000DCF80850A607360F07FA06F825EA0805E2
:1005E000DFF8B880404503D14FF0000817E044E041
:1005F000DFF8AC80404502D14FF001080FE0DFF892
:10060000A480404502D14FF0020808E0DFF898804E
:10061000404502D14FF0030801E04FF0040808FA0A
:1006200006F848EA0508CCF808804D68D9F800605B
:10063000ED024D4601D5164300E096432E604D680D
:10064000DAF80060AD02554601D5164300E0964346
:100650002E604D68DBF80060AD035D4601D51643A2
:1006600000E096432E604D68DEF80060ED037546AD
:1006700001D5164300E096432E60641C0D682A469F
:10068000E5407FF431AFBDE8F88F00000804014079
:10069000000011100010024000000140000801405D
:1006A000000C014000100140001401400AB101613A
:1006B00070470904FBE700000148806870470000AC
:1006C00000000020074810B5016841F010010160EA
:1006D000032000F075F80F2000F006F800F024F871
:1006E000002010BD0020024070B50D4D04464FF4AF
:1006F0007A712878B1FBF0F00A490968B1FBF0F093
:1007000000F0E2FA48B9102C07D200222146501E10
:1007100000F036F800206C6070BD012070BD000054
:10072000000000200C0000200C4808B5816941F051
:1007300001018161816901F001010091C16941F00C
:100740008051C161C06900F0805000900448416848
:1007500021F0E06141F00071416008BD00100240ED
:1007600000000140002809DB00F01F020121914038
:100770004009800000F1E020C0F80011704700003F
:10078000F0B40E4B1B680C46C3F30223C3F10705FC
:10079000042D00D90425191D072901D2002300E0EA
:1007A000DB1E012606FA05F1491E214099409E40B4
:1007B000761E16403143F0BC03F03ABE0CED00E06B
:1007C000064900F0070208684FF6FF03184040EAA8
:1007D0000220034A10430860704700000CED00E05F
:1007E0000000FA052DE9F0470F46050061D0434EA1
:1007F000306800F00700B84209D2306820F00700E6
:1008000038433060306800F00700B84251D12868A2
:100810003B4C810712D5400703D5606840F4E06087
:1008200060602878000703D5606840F4605060601D
:100830006068A96820F0F000084360602878C0076D
:1008400028D06868012810D02168022810D08907B4
:1008500000292EDA616821F0030101436160FFF78E
:100860002BFF804641F288390DE021688903EFE7CC
:100870008901EDE7FFF720FFA0EB0801494502D908
:100880000320BDE8F0876068696800F00C00B0EBF9
:10089000810FEFD1306800F00700B8420BD9306803
:1008A00020F0070038433060306800F00700B8429D
:1008B00001D00120E5E72878400705D56068E968A0
:1008C00020F4E060084360602878000706D560687F
:1008D000296920F4605040EAC100606000F03EF8F1
:1008E0006168084AC1F30311515CC84006490860B9
:1008F00006480068FFF7F8FE0020C2E7002002402B
:10090000001002407E4700080C0000200400002078
:1009100001480068704700000C00002004480549A9
:1009200000684968044AC1F30221515CC84070471D
:100930000C000020001002408E47000804480549C2
:1009400000684968044AC1F3C221515CC84070473D
:100950000C000020001002408E4700080E4A51682B
:100960000E4801F00C03042B11D0082B0FD10C48BA
:10097000C1F38343C903C05C0AD55168084AC1F377
:100980004041921E515C054A5043B0FBF1F0704764
:1009900004494843704700000010024000127A00EA
:1009A0006E47000800093D002DE9F84F040070D0A3
:1009B0002078C04DC00749D06868C0F38100012885
:1009C00007D06868C0F38100022809D16868C003B5
:1009D00006D52868800339D560680028E7D035E05F
:1009E0006068B0F5803F0BD010B1B0F5A02F11D0EA
:1009F000286820F480302860286820F4802002E0F5
:100A0000286840F480302860606890B1FFF754FE99
:100A100006460AE0286840F480202860F0E700BF1E
:100A2000FFF74AFE801B642873D828688003F7D537
:100A30000CE0FFF741FE064605E000BFFFF73CFE75
:100A4000801B6428F0D828688003F7D420789A4E59
:100A500080074FF001094FF0000839D5686810F0A1
:100A60000C0F07D06868C0F38100022809D16868BC
:100A7000C00306D42868800714D52069012808D14E
:100A800010E02069B0B1C6F80090FFF715FE0746E8
:100A900005E00AE1FFF710FEC01B0228C4D8286851
:100AA0008007F7D52868616920F0F80040EAC100A6
:100AB00028600DE0C6F80080FFF7FEFD074604E061
:100AC000FFF7FAFDC01B022823D828688007F7D457
:100AD000207800072CD57948A169D9B1C0F80090D9
:100AE000FFF7EAFD074604E0FFF7E6FDC01B02281A
:100AF0000FD8686A8007F7D571484FF4FA5100683B
:100B0000B0FBF1F0009000BF0098411E0091FAD2B6
:100B10000EE080E0C0F80080FFF7CEFD074604E05D
:100B2000FFF7CAFDC01B022875D8686A8007F7D492
:100B30002078400760D5E8690027C00008D4E8693C
:100B400040F08050E861E869012700F08050009093
:100B50005C480168C90513D40168834641F480717B
:100B60000160FFF7A9FD824606E000BFFFF7A4FD84
:100B7000A0EB0A0064284ED8DBF80000C005F5D5CC
:100B8000E06801280AD008B1052813D0286A20F0AF
:100B900001002862286A20F0040002E0286A40F080
:100BA00001002862E06841F2883B98B1FFF784FDBC
:100BB00082460BE0286A40F004002862EEE700BF9E
:100BC000FFF77AFDA0EB0A0159455AD8286A800739
:100BD000F6D50CE0FFF770FD824605E0FFF76CFDEF
:100BE000A0EB0A0159454CD8286A8007F6D41FB1FA
:100BF000E86920F08050E861E06988B36968C1F372
:100C00008101022944D00228C6F8608004D0FFF791
:100C100053FD044638E034E0FFF74EFD074604E09C
:100C2000FFF74AFDC01B02282BD828688001F7D4A3
:100C3000206AB0F5803F05D16868A16820F40030D3
:100C400008436860D4E908010843696821F4741115
:100C500008436860C6F86090FFF72EFD044606E082
:100C600025E000BFFFF728FD001B022809D82868EF
:100C70008001F7D51BE000BFFFF71EFD001B022817
:100C800002D90320BDE8F88F28688001F4D40EE073
:100C90000128F7D06868226A00F48031914204D1BB
:100CA000616A00F47010884201D00120EAE7002058
:100CB000E8E7000000100240000042428004424287
:100CC0000C0000200070004010B5401EB0F1807F85
:100CD00001D3012010BD4FF0E02460610F216017A7
:100CE00003F0A6FB0020A06107202061002010BDBA
:100CF00070477047F8B5016804460868CA684B69D0
:100D000010F00F0F4FF0000559D003F0010602F468
:100D10009077374365D0C10705D0D10503D5616C05
:100D200041F001016164410705D5D90703D0616C29
:100D300041F002016164810705D5D90703D0616CD8
:100D400041F004016164010707D502F0200131433D
:100D500003D0616C41F008016164616C00293AD0F4
:100D6000800604D5900602D5204603F059FA206883
:100D70004069616CC0F38010090700D460B320465D
:100D800003F027FA20684069400621D52068143016
:100D900050E8001F21F0400140E80012002AF5D180
:100DA000E06BA8B16D494163E06BFFF743FB00289E
:100DB00011D0E06B416B01B0BDE8F04008478306FD
:100DC0000FD593060DD52046BDE8F84003F028BAAC
:100DD0002046FFF78EFFF8BD2046FFF78AFF6564C7
:100DE000F8BD266B2023012E7CD1C6067AD5D60607
:100DF00078D508684868009048694FF002064006B8
:100E000040D5E16B086840680004000CE8D0A28D72
:100E10008242E5D9E085886920282DD020680C30F1
:100E200050E8001F21F4807140E80012002AF5D13B
:100E30002068143050E8001F21F0010140E8001242
:100E4000002AF5D12068143050E8001F21F040013D
:100E500040E80012002AF5D184F84230256320686A
:100E60000C3050E8001F21F0100140E80012002A69
:100E7000F5D1E06BFFF7BAFA6663A08DE18D401AF9
:100E800081B22AE0A08DE18D401A81B2E08D002868
:100E9000A6D00029A4D022680C3252E8000F20F41A
:100EA000907042E80007002FF5D12068143050E818
:100EB000002F22F0010240E80027002FF5D184F82E
:100EC0004230256320680C3050E8002F22F01002D9
:100ED00040E80023002BF5D166632046FFF708FFAA
:100EE000F8BDFFE705062BD5150629D594F8410076
:100EF0002128F5D1A068B0F5805F01D12069B0B19B
:100F0000206A411C2162216800784860E08C401E04
:100F10000004000CE084E3D12068C16821F0800166
:100F2000C1602068C16841F04001C160D8E7206A13
:100F30000088C0F308004860206A801C2062E5E752
:100F40004006CDD55006CBD5CA68204622F04002D7
:100F5000CA6084F8413000F0C6F8C1E7C341000818
:100F600070B5040004D094F84100002510B106E0EB
:100F7000012070BD84F84050204600F023F8242062
:100F800084F841002068C16821F40051C160204606
:100F900003F0A8F92068016921F4904101612068FB
:100FA000416921F02A0141612068C16841F4005182
:100FB000C1606564202084F8410084F842006563C4
:100FC000002070BD30B585B00024009401940294D7
:100FD00003940068184988422CD11848816941F46B
:100FE00080418161816901F480410491816941F00E
:100FF000040181618069124D00F0040004904FF4F7
:10100000007000900220019003200390694628465A
:10101000FFF75CFA2815CDE90004694628460294DA
:10102000FFF754FA002211462520FFF7A9FB2520DF
:10103000FFF798FB05B030BD0038014000100240BA
:101040000008014070472DE9F843044690F841003C
:10105000984616460D46202802D00220BDE8F883A7
:1010600085B17EB100206064212084F84100FFF743
:1010700023FBA6848146E684A0682027B0F5805F24
:1010800002D003E00120E9E7206910B12E460025D7
:101090000EE000260CE08021204603F07FF9A8B97D
:1010A000C6B116F8010B21684860E08C401EE08450
:1010B000E08C4B464FF00002CDF800800028EAD1CA
:1010C0004FF04001204603F069F940B184F84170C7
:1010D0000320C3E735F8020BC0F30800E3E784F808
:1010E00041700020BAE77047FEE7000070B586B097
:1010F00000241E480094019402940394816941F0F5
:1011000010018161816901F010010491816941F050
:1011100020018161816901F020010491816941F020
:10112000040181618069124D00F0040004900022E6
:101130004FF400512846FFF7B9FA0E4E002208215D
:101140003046FFF7B3FA42F2080000900120CDE9E3
:1011500001040220039069462846FFF7B7F9694663
:101160003046FFF7B3F906B070BD00000010024032
:1011700000100140000801400C4810B50A49016008
:101180004FF4E1314160002181600C22C160C0E96F
:1011900004128161C161FFF7E3FE002803D0BDE8BE
:1011A0001040FFF722B910BD00380140A808002008
:1011B000FEE70A46002100F023B800000D480E4962
:1011C0000246C0E9001200218160C16001614161F5
:1011D0008161C16101620163C162416200F1480144
:1011E0008163C1634FF4A05101644164034802600C
:1011F0007047000000090020484541502C000020A5
:1012000010B5002A21D000281FD000244FEA040383
:101210005B1C41EA0424042BFAD310F0030305D12C
:101220000BE000BF521E00F8011B5B1C002A0CD013
:10123000042BF7D301E010C0121F042AFBD202E0F6
:1012400000F8011B521E002AFAD110BDFEE77047BC
:1012500002480068002800D0004770474000002086
:1012600010B5044600F0BEF8464800210A2201707D
:101270004548017045480170454801604548016096
:101280004548017045480170454801704548016076
:10129000454801604548016045480170454800687F
:1012A000B0FBF2F0444A1060444A106830B1444840
:1012B000006818B1126802C0521EFCD1414801609A
:1012C0004148016041480160414801604148016076
:1012D00041480160414801604148017001F0E0FC73
:1012E00001F092FD204600F0F1FF2088002847D150
:1012F000204601F0E5FA2088002841D1204601F07F
:10130000EBFA208800283BD1204601F07FFB2088A3
:10131000002835D1204601F0E9FC208800282FD193
:10132000204601F099FE2088002829D1204602F0AD
:1013300005F92088002823D1204601F035FA2088BD
:1013400000281DD1204601F0CDF82088002817D1B3
:10135000204602F05FFD2088002811D1204602F0CF
:101360004BF8208800280BD1204602F0A7FD2088EA
:10137000002805D100F0A8FFBDE81040FFF767BFC7
:1013800010BD0000540000205C000020A4000020DC
:10139000F8000020FC0000208A0000208B000020C4
:1013A0008C000020980000209C000020A00000205D
:1013B000AC000020E0470008A8000020BC4700085F
:1013C000B847000834000020380000203C0000200E
:1013D0004000002044000020480000204C00002075
:1013E000DA00002030B5094B0020094A044619688C
:1013F00001E010C1401C1568A842FAD318680549DD
:1014000000EB8500001F086030BD0000B8470008F1
:10141000BC470008000100201A4810B500780128D8
:101420002FD1FEF783FE184A0446117829B1491ED0
:1014300011F0FF00107022D103E0BDE81040FEF76C
:1014400079BE12480078D0B901F018FC1049087034
:10145000104900EB400051F820100F4801600F4880
:10146000006881420BD051F8900F401C08600C4876
:101470000168491C01600B494FF08050086020460C
:10148000DBE710BD5C00002054000020A400002019
:101490008B00002074330020FC000020F8000020A6
:1014A000D000002004ED00E0164810B500780028B8
:1014B00026D115480078002822D1FEF737FE0446D1
:1014C00001F0DCFB11490870114900EB400051F8B4
:1014D0002000104908601049096888420BD050F874
:1014E000901F491C01600D480168491C01600C49AE
:1014F0004FF0805008602046BDE81040FEF71ABE4D
:1015000010BD000054000020A40000208B0000202B
:1015100074330020FC000020F8000020D0000020E0
:1015200004ED00E070B504461248007810B146F6AC
:1015300062501DE010480078012802D045F689600D
:1015400016E00E4D2878FA2802D345F209200FE064
:10155000FEF7ECFD0646FEF7E7FE2878401C2870F3
:1015600001F01AFDFEF7F0FE3046FEF7E3FD002025
:10157000208070BD540000205C000020A4000020EA
:101580002DE9F04116460C460546FEF7CFFD07460D
:10159000FEF7CAFE29460D480025012901D0057035
:1015A00001E0012101700A480CB1046005E009491D
:1015B0000A220968B1FBF2F10160FEF7C5FE384668
:1015C000FEF7B8FD3580BDE8F0810000AC000020DA
:1015D000A8000020E047000870B5044618480078CD
:1015E00010B146F6655029E016480078012802D06F
:1015F00045F6896022E0144D287890B1FEF796FDFB
:101600000646FEF791FE2878401E10F0FF00287075
:101610000AD0FEF799FE3046FEF78CFD46F6635081
:101620000CE046F6645009E001F0C4FCFEF78CFEC5
:101630003046FEF77FFDFFF737FF0020208070BDAA
:10164000540000205C000020A400002070B50F4D65
:101650000446287818B145F68A60208070BD01F0F4
:101660000DFB0B4908700B4908700B4900EB40005B
:1016700051F82000094908600949086001202870D4
:10168000FEF78EFD43F69920E7E700005C0000209E
:101690008B0000208A00002074330020FC00002012
:1016A000F80000202DE9F0410646FEF73FFD054613
:1016B000FEF73AFE2E48002404602E4804802E488F
:1016C00004802E4804602E4804602E4804602E4892
:1016D00004602E4804602E480481FEF735FE28463B
:1016E000FEF728FDFEF722FD0746FEF71DFE2948FE
:1016F000056818E0FEF71AFD0746FEF715FEC5F867
:10170000B440C5F8B84045F8784F2C63AC61AC8262
:10171000EC826C62AC62FEF761FE45F8200FA5F129
:1017200034008481AD6AFEF70FFE3846FEF702FDF5
:10173000002DDFD1FEF7FAFC0746FEF7F5FD16484F
:10174000056806E0FEF7F2FC0746FEF7EDFDAC8506
:10175000AD69FEF7F9FD3846FEF7ECFC002DF1D13E
:1017600002F072FA02F078FC3480BDE8F0810000EB
:10177000700000206A000020BA000020CC00002089
:10178000E0000020E8000020580000209C0000201D
:1017900068330020D400002090000020F8B50446F3
:1017A0006946244800F0A4FBBDF8000058BB6A4617
:1017B0000021022000F0FAFBBDF8000018BBFEF784
:1017C000B5FC0746FEF7B0FD1B4E00253560FEF761
:1017D000BBFD3846FEF7AEFC184919480A68036895
:1017E0009A4202D9B2FBF3F010B90A21B2FBF1F030
:1017F0006A46002100F0DAFB69460E4800F0F2F973
:10180000BDF8000008B12080F8BDFEF78FFC074648
:10181000FEF78AFD0B480C490560306808600B49EB
:1018200001200870FEF790FD3846FEF783FC258006
:10183000F8BD000084360020BC000020E04700080E
:10184000CC470008CC000020C0000020C8000020C9
:1018500002480068002800D000477047440000207C
:101860002DE9FF4F83B004467248DDE91785DDE9B5
:1018700010960078DDF854A0139F10B147F24A107B
:101880002AE04CB1059850B166B16B4800688742B8
:101890000BD246F630601FE047F2AD101CE047F275
:1018A0004F1019E046F62F6016E01298B84202D3A6
:1018B00046F6316010E046F27320B9F1200F0BD2EA
:1018C0005FEA090103D0B9F11F0F02D008E05B49BC
:1018D00000E05B498C4203D0288007B0BDE8F08F60
:1018E000204601F03BFE4FF0000BA5F800B05FEA88
:1018F000C8700AD05FEA887007D5304600215A4682
:1019000001E004C0491CB942FBD31298CDE900782C
:1019100006EB8005DDE905012B46324600F0B0FA02
:101920000599A1620699E1620499216284F83790D1
:10193000C4F854A0A56020605FEA0A0024D0A06526
:101940001698A76366626060A4F83C800020594640
:1019500004EB8002401CD16710F0FF00F8D004F1C6
:101960006400149901F006F8204600F075F8FEF7BF
:10197000DDFB0646FEF7D8FC324D2878401CC0B28D
:101980002870012803D004E02F480068D7E701F051
:1019900003FBFEF7D9FC3046FEF7CCFB94F837008A
:1019A00001F084F9204601F075FA204601F098FD17
:1019B00026490888401C088025480078012821D045
:1019C000FEF7B4FB0446FEF7AFFC2878401E10F08B
:1019D000FF0129700ED101F0EDFA1E48008848B1D0
:1019E000FEF7B2FC2046FEF7A5FB07B0BDE8F04FBE
:1019F00001F0AEBAFEF7A8FC07B02046BDE8F04FF4
:101A0000FEF798BBFEF792FB0446FEF78DFC2878A4
:101A1000401E10F0FF01297001D101F0CBFAFEF752
:101A200093FC2046FEF786FB07B0BDE8F04FFFF7BA
:101A30003BBD000054000020DC470008A03200201D
:101A4000D8310020A4000020A8000020D8000020E9
:101A50005C0000206800002002490968002900D0CD
:101A600008477047340000202DE9F04104465248F1
:101A70000E46007810B147F24E100AE04F488442FB
:101A800002D147F24C1004E04D48844204D147F2A1
:101A90004D100880BDE8F0815CB9FEF747FB0546B4
:101AA000FEF742FC47480468FEF74EFC2846FEF766
:101AB00041FBFEF73BFB0746FEF736FC424D28781C
:101AC000401CC0B22870012801D101F065FAFEF770
:101AD0003BFC3846FEF72EFB94F8360008283DD232
:101AE000DFE800F004080C0C1C080C0C204601F088
:101AF00005FA13E0204602F08BF80FE0204602F0D2
:101B000087F894F83400072808D2DFE800F00704CB
:101B1000070404040400204601F023F804F16400E3
:101B200000F00EFF204600F055F8204601F0EAFCD8
:101B300026490888401E0880204601F00FFDFF203E
:101B400084F83600FEF7F2FA0446FEF7EDFB28783B
:101B5000401E10F0FF00287021D022E0FEF7E6FAC8
:101B60000446FEF7E1FB2878401E10F0FF002870C5
:101B70000CD101F01FFA1648008838B1FEF7E4FBDB
:101B80002046FEF7D7FA01F0E3F904E0FEF7DCFBAC
:101B90002046FEF7CFFA46F62D6030807AE701F056
:101BA00009FAFEF7D1FB2046FEF7C4FA0020308088
:101BB000BDE8F041FFF778BC54000020D831002088
:101BC000A0320020F8000020A4000020D80000204F
:101BD0006800002002490968002900D008477047C2
:101BE000380000207FB50D460446FEF79FFA0646F2
:101BF000FEF79AFB1CB114480068844208D1FEF736
:101C0000A3FB3046FEF796FA47F2571028807FBDB7
:101C1000FEF79AFB3046FEF78DFA0C48007858B173
:101C20000020CDE9020500900346024601902146BE
:101C3000074800F08BFC7FBD04B029462046BDE874
:101C4000704001F09FBD0000F8000020540000200B
:101C50005452455302490968002900D0084770478B
:101C60003C0000202DE9F0478146574814461E46A7
:101C70000078884610B146F2AE1006E0080006D0A3
:101C8000B1F5004F03D045F6256018803DE00027F0
:101C900004B12760FEF74AFA8246FEF745FB4B4D3A
:101CA0002968486CD8B1401E804648640CB1086C65
:101CB0002060FEF793FB29680A6C801AC1F8A40023
:101CC000D1F8A820824201D2C1F8A800FEF73CFB5F
:101CD0005046FEF72FFA37804046BDE8F0875FEAAE
:101CE000084007D5FEF730FB5046FEF723FA46F2D0
:101CF000B01009E03648017849B1FEF725FB50469F
:101D0000FEF718FA46F6635030800020E5E701211F
:101D10008046017001F040F9FEF716FB5046FEF7D1
:101D200009FA00214B460722084600F07BFEFEF729
:101D3000FDF98146FEF7F8FA98F80010491E11F0F7
:101D4000FF0188F8001001D101F034F9FEF7FCFA28
:101D50004846FEF7EFF9FFF7A7FBFEF7E7F98046E5
:101D6000FEF7E2FA286890F8351031B1012916D053
:101D700003291AD046F62E601BE074B1006C206077
:101D8000FEF72CFB29680A6C801AC1F8A400D1F870
:101D9000A820824201D2C1F8A80037800AE00CB125
:101DA000006C206046F2A91003E004B1276047F2FE
:101DB000D92030802868446CFEF7C6FA4046FEF70A
:101DC000B9F9204689E7000054000020F8000020FF
:101DD000A40000202DE9F0470546274816460F4687
:101DE00000781C4610B147F259100AE046F2D5209F
:101DF0003FB136B1FEF79AF98146FEF795FA1DB16B
:101E000004E01880BDE8F0871C4805684FF0000822
:101E1000286858B195F83C00C00713D0FEF794FA33
:101E20004846FEF787F90020696A1AE0FEF78CFA47
:101E30004846FEF77FF9C7F8008047F25210C6F80F
:101E400000800AE0FEF780FA4846FEF773F9C7F80B
:101E5000008047F25410C6F800802080D2E7401C72
:101E6000091D0A68002AFAD03860A96B081A306088
:101E7000A4F80080C6E7000054000020F80000200D
:101E800010B5029C02EB84024FF0807442E9020418
:101E9000164842F80C0C4FF0123042F8100CA2F128
:101EA00014004FF0023240E903134FF0113140F8B3
:101EB000101CD10040F8141C4FF0093140F8181CD8
:101EC000910040F81C1C4FF007314FF0033440F8EC
:101ED000201C610040F8241C4FF0053140F8281DFB
:101EE0005100C0E9092440F8041D10BD85380008E0
:101EF0001FB5104A904202D147F25B1004E00E4A2F
:101F0000904203D147F25C1008801FBD0B4A127843
:101F100052B10022CDE902210146009213460192FE
:101F2000074800F013FB1FBD04B0BDE8104001F0EE
:101F300079BD0000D8310020A032002054000020DC
:101F40005453555370B51548006800B18047FEF7EB
:101F500045FA134C134A21681268914207D0D1F810
:101F60009830C31A41F8943F8D682B448B60C2F8B7
:101F70009800FEF7BBF92168D1F8B420824201D263
:101F8000C1F8B400084AD1F8B8301068834201D2D1
:101F9000C1F8B8000020106070BD000048000020AB
:101FA000F8000020FC000020A00000202DE9F041F6
:101FB000804636480F461546007810B147F2752026
:101FC00020E0334C207810B146F663501AE047B158
:101FD000022F06D0042F07D0082F02D045F6256027
:101FE00010E0B8F1000F0BD0FEF7A0F80646FEF7A0
:101FF0009BF92078401CC0B22070012805D006E073
:1020000047F27E201080BDE8F08100F0C5FFFEF7AA
:102010009BF93046FEF78EF81E4E01212B463068A4
:102020003A4680F83610414601F086FD288898B17E
:10203000FEF77CF80546FEF777F92078401E10F091
:10204000FF01217001D100F0B5FFFEF77DF92846B0
:10205000BDE8F041FEF76EB8306800F04FFFFEF7C4
:1020600065F80646FEF760F92078401E10F0FF0084
:10207000207001D100F09EFFFEF766F93046FEF7B2
:1020800059F8FFF711FA00202880BCE7540000201F
:10209000A4000020F80000202DE9F0475C4EDDE9A7
:1020A0000854367816B147F27520ABE0DFF864A12A
:1020B0009AF8006016B146F66350A3E015F00E06DC
:1020C00047F27E2945F6256705D0022E03D0042E5F
:1020D00006D0082E07D11BB912B909B900287DD046
:1020E00035F01E0C02D02780BDE8F087C5F300153F
:1020F00047F2792C47F278284FF47A773DB142F2D3
:102100000F75A94212D900BFA4F800C0ECE7BB428A
:1021100002D347F27B2075E03B2A02D947F27A20AE
:1021200070E03B29F0D8632802D804E0B84202D31B
:10213000A4F80080D8E7384D4FF4FA7CC1EB0111C8
:102140002D68BCFBF5FC63446B43B3FBF7F34FF422
:102150006167784300EB8100104400FB0537EFB363
:10216000FDF7E4FF8046FEF7DFF89AF800005546D9
:10217000401CC0B28AF80000012801D100F00CFF19
:10218000FEF7E2F84046FDF7D5FFDFF89080012129
:102190002346D8F80000324680F83610394601F060
:1021A000CBFC208898B1FDF7C1FF0446FEF7BCF8D0
:1021B0002878401E10F0FF01297001D100F0FAFECE
:1021C000FEF7C2F82046BDE8F047FDF7B3BFD8F8E8
:1021D000000000F093FEFDF7A9FF00E014E00646C2
:1021E000FEF7A2F82878401E10F0FF00287001D1F9
:1021F00000F0E0FEFEF7A8F83046FDF79BFFFFF782
:1022000053F9002020806FE7A4F800906CE70000ED
:1022100054000020A4000020E0470008F80000203F
:1022200000B585B000F01CF8FEF7D8F804AA00212C
:1022300003920091CDE90110064807490023007878
:102240001A4600EB400001EB8001044800F07EF9E3
:1022500005B000BD8A000020743300205449434B70
:1022600002480068002800D0004770474C0000205A
:1022700010B5FDF75BFF0446FEF756F807490878EE
:10228000401C0870FEF760F82046FDF753FFFFF78B
:10229000C7FFBDE81040FFF7BFB8000054000020A2
:1022A0004FF0E021401E48610648026822F07F425C
:1022B0000260086940F005000861086940F002000A
:1022C0000861704720ED00E070470000034A0021DC
:1022D0001160034A118001807047000074000020E3
:1022E000780000202DE9F05F9A4690460D4604469E
:1022F0000A9FFDF71BFF8346FEF716F85FEA08000A
:1023000024D0012807D0B0F5004F1FD06FF4004152
:1023100018EB010F12D1206A30EA0500C4E9080A5F
:10232000208A04F108064FF0000990B14D4D28783D
:10233000401CC0B22870012815D016E0FEF704F842
:102340005846FDF7F7FE45F625606CE0206A284305
:10235000E4E7FDF7F9FF5846FDF7ECFEA7F800901B
:10236000206ABDE8F09F00F017FEFDF7EDFF58462C
:10237000FDF7E0FE366833E090F88810766801F0EB
:102380000F0101291BD0022921D004290DD00829D1
:1023900010D0FDF7CBFE0446FDF7C6FF2878401E9F
:1023A00010F0FF0028702AD036E0216AD0F8802093
:1023B000114009E0216AD0F8802011400BE0D0F8EC
:1023C0008010236A0A4699438A4205D007E0D0F874
:1023D0008010226A914311B1524600F047F816B1BD
:1023E000B0680028C8D1FDF7A1FE0646FDF79CFFA6
:1023F0002878401E10F0FF00287017D018E000F079
:10240000D9FD1948008838B1FDF79EFF2046FDF739
:1024100091FE00F09DFD04E0FDF796FF2046FDF7DC
:1024200089FE43F6FF20388000209AE700F0C2FDC5
:10243000FDF78AFF3046FDF77DFE5FEA084001D4D4
:10244000FFF732F8FDF772FE0546FDF76DFF246ACF
:10245000FDF77AFF2846FDF76DFEA7F800902046AD
:102460007FE70000A40000206800002070B5002570
:10247000C0F8841080F8355080F834500446026467
:1024800090F8360008280ED2DFE800F00D0D0404A5
:102490000D0D0A0A204601F067F984F8365002E073
:1024A000042084F836002046BDE8704000F059BB97
:1024B0000A4C0B4DFDF73AFE0646FDF735FF206846
:1024C000401C20602868401C2860FDF73DFF304616
:1024D000FDF730FEFEF7BCFEECE7000050000020E8
:1024E000BC00002000B50E4A89B0002111600B220B
:1024F00005910691CDE907200A480B4A0B4B00686D
:1025000012681B680292CDE903011F20CDE9000388
:102510000023074A07A10C48FFF7A2F909B000BD44
:1025200050000020A04700089C470008984700087A
:10253000B124000875432F4F532D49494920496460
:102540006C65205461736B00D83100202DE9F84F81
:102550001D46DDE90CB4DDE90AA916460F468046A2
:10256000FDF7E4FD0090FDF7DFFE1D481D4A0188E0
:10257000128891422DD2491C89B201801A480288E2
:102580008A4200D2018019490868C0F80080C0E979
:1025900002760582C0F814A0A0F81890C0F81CB00C
:1025A00040680860124801210181124901604160C0
:1025B000002000F07BFB1048007808B10F4908703C
:1025C00000202080FDF7C0FE0098BDE8F84FFDF721
:1025D000B1BD0B490888401C088044F25360F0E705
:1025E00068000020A84700086A0000206000002062
:1025F00074330020A03200208A0000208C000020CC
:102600006C0000203EB5374C374B02A920680268A9
:10261000D51A9A4245D015DC344BD2182DD0344B04
:10262000D21822D0334BD21832D0334BDA4208D1F1
:10263000C269CDE90021038B028AC168806800F07D
:10264000F1FF3EBD2D4AAA181ED02D4BD21824D022
:102650002C4BDA42F5D1C269CDE90021038B028A05
:10266000C168806800F04EFB3EBD0091028BC369DB
:1026700041698068FFF736FE3EBD018BC269806804
:1026800002AB00F0F5FC3EBD806801F07BF83EBD7A
:10269000018BC269806802AB21E0806801F0C2F959
:1026A0003EBD19481949007800EB400001EB80005D
:1026B00000F09EFC206802AB0021C269144801F0C2
:1026C000EDF814480168491E0160E9D11249096812
:1026D0000160FDF783FE024602AB00210F4801F0C6
:1026E000DDF83EBD640000205449434BADBAB2BE94
:1026F0000DF90BFAF2F8F7FF0006F6FF00F7FDF709
:1027000000FFEFFF03FE0FFE8C000020743300205B
:10271000BC350020F4000020F000002084360020AA
:102720001D4D1E4C1E4E00BFFDF700FD0746FDF778
:10273000FBFD208808B3FDF707FE3846FDF7FAFCDD
:10274000FDF74CFE0746FFF75DFFFDF747FE2968E2
:10275000C01B814200D22860FDF7E8FC0746FDF768
:10276000E3FD3068406830602088401E2080FDF71F
:10277000EBFD3846FDF7DEFCD6E70A49002008816C
:102780000860486000F0A2FAFDF7DEFD3846FDF76C
:10279000D1FCFEF789FEC5E770000020680000202C
:1027A0006400002074330020F0B52F492F4D89B00C
:1027B00000220A80296831B12D4E3188022905D2C4
:1027C00044F2546135E044F2526132E02949002379
:1027D000294F0A60296801F1200410E041F8087BC4
:1027E0005B1C41F8082B9BB241F8042C21F8102BFC
:1027F00041F80C2C21F8082C41F81C4C2034B6F878
:1028000000C06345EAD32B6841F81C3C1B490B60B0
:102810001B490B601B490A801B490A801B490B6836
:1028200053B11B4B1B4D1C682D68AC4207D244F2C0
:102830005661018009B0F0BD44F25561F9E7032407
:1028400005920692CDE907401868134B09681B688A
:10285000CDE903020092CDE9011300230F4A10A134
:102860001648FEF7FDFFE5E76C000020A4470008CE
:10287000A8470008700000204E4F4E456000002021
:1028800064000020680000206A000020AC470008B7
:10289000B4470008DC470008B047000821270008BB
:1028A00075432F4F532D49494920495352205175A3
:1028B000657565205461736B00000000A032002034
:1028C000034A00211160034A118001807047000013
:1028D0007C00002080000020F0B5164C216859B122
:1028E000154E318859B189B2491E22688FB2002530
:1028F00002F1100329460EE045F21E7118E045F280
:102900001D7115E0E2E802316D1C22F8081BADB222
:1029100042F8041C1033BD42F4D3116051601181A0
:10292000D160064A2368136033889380D180118177
:102930000180F0BDC4470008C0470008683300208C
:1029400010B5428992B10A4903680C681C6043685B
:102950000B60CB8844891B1BCB808B884489234424
:102960008B8000214181818101604160104610BD52
:102970006833002001810021418181810160416033
:1029800070470000F0B54489DDE905E70589AC42F0
:1029900002D346F293501EE01B4DAE88CEB12C6898
:1029A000761ED4F800C0C5F800C0AE80EE88761C54
:1029B000B6B2EE80B5F808C0B44500D22E81468983
:1029C000002556B1DB060ED403681C600460256048
:1029D0000CE045F21D703880F0BD046001234460B6
:1029E0004381256005E043682360446043895B1CA4
:1029F0004381868943899E4200D28381616022811E
:102A0000C4F80CE03D80F0BD68330020034A00218B
:102A10001160034A1180018070470000840000208B
:102A2000880000202DE9F041114D07460C4628682A
:102A30000026194680F8342080F8356000F03AFD11
:102A400064B1FC6004F1080601223946286800F0F0
:102A500011F83946304600F057F802E02868C6877A
:102A6000066320462968BDE8F04100F01BB800006D
:102A7000F800002010B5C2870024234601630EE051
:102A80004B6041F8103B641C41F8103BA4B241F884
:102A90000C3C21F8083C41F8043C41F8180C9442E5
:102AA000EED310BD38B14268C1F8C420816889688E
:102AB000096AC161704791F83400022803D00728E1
:102AC00003D004A002E004A000E005A0C1F8C40007
:102AD00070470000200000005461736B205100001B
:102AE0005461736B2053656D0000000005A2C1F8AE
:102AF000C420816811B18968096A00E001A1C1613F
:102B0000704700002000000030B58A68002392F86A
:102B1000374002891AB1521C028102680BE001227F
:102B200002814B600B60016014E0956895F83750A6
:102B3000A54203D85268002AF7D107E032B11468E1
:102B400054B1C1E900426160116030BD4B60426820
:102B50000A605160416030BD1160C1E9003201601E
:102B600030BD70B50646C48F056B07E0E86829469E
:102B7000083000F009F8641EA4B22035002CF5D10D
:102B80000020F087306370BD10B502890023012A50
:102B90000BD00A6862B14C6874B15460226002893B
:102BA000521E02814B600B6010BD03604360F6E76C
:102BB0004A6813600260F2E753604260EFE7F8B5DD
:102BC0000C46064691F836100025069808293BD297
:102BD000DFE801F03A3A04043A3A202094F834103D
:102BE000032911D0E265A4F86030206436B1204694
:102BF000FFF7B7FF21463046FFF778FF204600F089
:102C0000B3FD84F836501BE000902146304600F0BA
:102C100022F8EBE794F83410032916D0E265A4F803
:102C200060302064204600F0F3FF36B12046FFF705
:102C300098FF21463046FFF759FF042084F83600FC
:102C400084F8355084F83450F8BD00902146304661
:102C500000F001F8E6E770B50C6B049DC98F0AE03F
:102C6000E668864204D1C4E904022383E56170BDAD
:102C7000491E89B220340029F2D170BD10B500245C
:102C8000064802E02034E4B2001D01680029F9D0B2
:102C90000846FDF756FA2044C0B210BD30000020AF
:102CA00001490020086070473000002000F01F023A
:102CB00041090120C2F11F029040034A52F821301D
:102CC000034342F8213070473000002000F01F021B
:102CD00041090120C2F11F029040034A52F82130FD
:102CE000834342F82130704730000020034A00211E
:102CF0001160034A1180018070470000900000209D
:102D0000940000202DE9FF4F83B01F46DDE9109AA3
:102D100093460646FDF70AFA0546FDF705FB384CD3
:102D20002078401CC0B22070012801D100F034F995
:102D3000FDF70AFB2846FDF7FDF9358A06F1080084
:102D40001DB1B90530D500683CE0F80601D4002378
:102D500000E01023CDE9009A5A4606F120000499BC
:102D6000FFF710FEFDF7E2F90546FDF7DDFA2078E2
:102D7000401E10F0FF0121700ED100F01BF9214818
:102D8000008848B1FDF7E0FA2846FDF7D3F907B00F
:102D9000BDE8F04F00F0DCB8FDF7D6FA07B02846E2
:102DA000BDE8F04FFDF7C6B9006801255B46D0E9E4
:102DB0000181CDF800903046049AFFF700FF6D1EA8
:102DC0004046ADB2002DF1D1FDF7B0F90546FDF753
:102DD000ABFA2078401E10F0FF00207001D100F007
:102DE000E9F8FDF7B1FA2846FDF7A4F9380401D453
:102DF000FEF75AFB0021AAF8001007B0BDE8F08FDB
:102E0000A4000020680000200020074B014600BFFE
:102E100000EB400203EB8202401C11811160C0B242
:102E200051602028F4D370477433002010B5044655
:102E300090F83700FFF73AFF074994F83700097810
:102E40008842204603D1BDE8104000F023B8BDE819
:102E5000104000F003B800008A00002090F83710FE
:102E60000B4A01EB410102EB810100220B8943B1C6
:102E70005B1C0B810B68C0E903320A6810610860B3
:102E8000704701230B81C26002610860486070478F
:102E90007433002090F837100A4A01EB410102EB2D
:102EA000810100220B893BB15B1C0B81C2604A6827
:102EB0000261D0604860704701230B81C2600261EB
:102EC0000860F7E77433002010B50289002A14D097
:102ED000012A12D00021022A07D0D0E90024D368A9
:102EE0001961C2E90314E26005E0D0E90023C2E9F8
:102EF0000313C3E90321C0E9003210BD70B50546D4
:102F000090F83700114900EB400001EB8001D5E952
:102F10000302002442B10B895B1E0B81D06090B18B
:102F200002612C61EC6070BD28B10A89521E0A81D1
:102F300004610860F5E70C810C604C6095F837007F
:102F4000FFF7C4FEEDE74A60EBE7000074330020B2
:102F500010B5FDF7EBF80B4A002111700B4A0A4936
:102F6000116051F8902F521C0A6009490A68521CDE
:102F70000A60084A4FF080511160BDE81040FDF72B
:102F8000D9B800008B000020A0320020FC000020F7
:102F9000D000002004ED00E0044810B500780128BE
:102FA00003D1FDF71BFA0249086010BDA400002000
:102FB000980000200A4810B5007800280ED1FDF7CF
:102FC0000DFA08490968401A07490A68824200D286
:102FD000086006490A68824200D2086010BD0000FD
:102FE000A4000020980000209C000020A0000020E9
:102FF00070B5044614480078012824D1FDF796F8EE
:103000000546FDF791F92168B1B11048814213D00E
:103010008A6D12B1521E8A650ED1208902280BD307
:103020000B48007840B92046FFF74EFF2068416DFD
:1030300009B9084909688165FDF786F92846BDE8A0
:103040007040FDF777B870BDAC000020D83100208B
:10305000A4000020A8000020034A00211160034AB8
:103060001180018070470000B0000020B4000020F3
:103070002DE9F84F1E46904689460446FDF756F85E
:103080000090FDF751F9208A04F108074FF0000B7A
:1030900050B1DFF8BCA09AF80010491CC9B28AF8F8
:1030A000001001291AD01BE0256A681C0CD06D1C89
:1030B000C4E90858FDF748F90098FDF73BF8A6F871
:1030C00000B02846BDE8F88FFDF73EF90098FDF7FF
:1030D00031F846F6C55030800020F3E7FFF75CFF7B
:1030E000FDF732F90098FDF725F85FEA895002D51F
:1030F0003D893F680CE03F6801250023B9687F687F
:103100001A462046CDF80080FFF759FD6D1EADB27E
:10311000002DF2D1246AFDF709F80546FDF704F900
:103120009AF80000401E10F0FF008AF8000001D15C
:10313000FFF740FFFDF708F92846FCF7FBFF5FEAC1
:10314000094001D4FEF7B0F9A6F800B02046B9E76F
:10315000A40000200EB5964C964E2068450004E071
:1031600028466A460021FEF721FF30780128F7D172
:103170006846FEF797FA904822680168914206D99E
:103180000A462168B2FBF1F15FEA010803D1006849
:103190000A21B0FBF1F8DFF824B2894F42F2107A2D
:1031A0005FF00006FDF71AF90190FDF7AFF88549C9
:1031B0000860FCF7BBFF0546FDF7B6F88248834C74
:1031C000016821600660FDF7BFF82846FCF7B2FFF2
:1031D0007F48236802689A422BD97E48824202D2F5
:1031E0005046012115E07C48824203D24FF47A70A8
:1031F0000A210EE07948824202D26420014608E0AA
:103200007748824203D20A204FF47A7101E001200C
:103210005146B2FBF1F15843B0FBF1F0AAEB0000CC
:10322000704980B2ABF800000A88824203D208805D
:1032300001E0ABF800A0FEF70BFB0024FCF776FFE3
:103240008146FDF771F83D6842E000BFFCF76EFF74
:103250000290FDF769F8DFF8909199F80010491C89
:10326000C9B289F80010012901D1FFF795FEFDF7D9
:103270006BF80298FCF75EFFD5F89C00C5E9276063
:10328000FCF754FF0290FDF74FF899F80010491E23
:1032900011F0FF0189F800100CD1FFF78BFE5348A5
:1032A000008838B1FDF750F80298FCF743FFFFF7AC
:1032B0004FFE04E0FDF748F80298FCF73BFF55F895
:1032C000A00F0444FCF732FF8146FDF72DF82D6A6C
:1032D000FDF73AF84846FCF72DFF002DB6D12CB388
:1032E0003C48844202D25546012015E03A488442C7
:1032F00003D24FF47A750A200EE03848844202D295
:103300006425284608E03648844203D20A254FF453
:103310007A7001E001255046B4FBF0F08146FCF7DD
:1033200005FF0290FDF700F83C6822E0002501202F
:10333000F4E700BFD4F8A0006843B0FBF9F080B216
:10334000504500D95046A4F88C00B4F88E10814244
:1033500001D2A4F88E0004F1AC026B46111D204688
:10336000FEF738FDFCF7E2FE0290FCF7DDFFD4F833
:10337000C040FCF7E9FF0298FCF7DCFE002CD9D135
:103380001B480178012903D106706846FEF78AF9C7
:10339000FDF724F80199401A16490A68824200D2C2
:1033A00008606A4600214046FEF700FEFAE600008B
:1033B000CC470008C8000020E0470008B800002003
:1033C000D400002058000020BC000020C4000020D1
:1033D000C0000020801A060000093D00005A620269
:1033E0000084D717BA000020A40000206800002045
:1033F000B6000020CC00002030B51D4A89B0002165
:1034000011601C4A11601C4A11601C4A11701C4A50
:1034100011701C4A136843B11B4B1C4D1C682D686E
:10342000AC4205D246F62C6108E046F62B6105E079
:10343000174C25781F2D04D346F62A61018009B068
:1034400030BD032505910691CDE9075011481B6851
:1034500012680068CDE90120CDE9033120780090A1
:1034600000230D4A0DA11248FEF7FAF9E7E7000024
:10347000BC000020C4000020C0000020C8000020C4
:10348000B6000020D0470008D8470008DC470008F5
:10349000C8470008D44700085531000875432F4F2E
:1034A000532D4949492053746174205461736B0052
:1034B000F434002038B50446022531B16B460222AF
:1034C00000F03AFBBDF8000028B184F836502046E1
:1034D000FFF714FD38BD032084F83600F7E700003D
:1034E000074B0022C0F8BC20196829B1C0F8C010F1
:1034F000C1F8BC0018607047C0F8C020FAE70000AF
:10350000D4000020D0E92F2100234AB181B1C2F8B4
:10351000C010C1F8BC20C0F8C030C0F8BC30704743
:10352000054A116009B1C1F8BC30C0F8C03070471D
:10353000C2F8C030F1E70000D4000020044A0021A6
:103540001160044A1180044A116001807047000034
:10355000D4000020D8000020D000002070B5002545
:10356000056085604560C56005614561044685610B
:1035700029A0C4E907506562A562E5622563E58775
:103580002564E565A4F86050002104F16400FFF7AC
:10359000F1F96567A567C4F88050A4F88850002049
:1035A000C4F8845004EB8001401CCD6710F0FF008C
:1035B000F8D06564C4F8A450C4F8A850A56384F892
:1035C0008A50C4F8B050C4F8AC50A5874FF0004002
:1035D000C4E9120525656565A565A4F88C50A4F8B5
:1035E0008E50C4F89050C4F894503434FCF7F6FE72
:1035F000C4E91905C4F88050C4F8845004F8015B8C
:10360000202004F8015B04F8015B04F8850B04A09A
:1036100020C4C4E9005070BD3F5461736B000000CA
:10362000200000002DE9FC5F9946DDE90C7692460A
:103630008B460546FCF77AFD8046FCF775FE474C45
:103640002078401CC0B22070012801D1FFF7A4FCF3
:10365000FCF77AFE4046FCF76DFD0DB94048056861
:103660000020308095F83600DFF8F880082852D224
:10367000DFE800F00404262604042626CDE90076BF
:103680004B465246594605F16400FFF77BF9FCF7BB
:103690004DFD0546FCF748FE2078401E10F0FF0166
:1036A000217031D1FFF786FCB8F8000060B3FCF759
:1036B0004BFE2846FCF73EFDBDE8FC5FFFF748BC2B
:1036C00095F834000228D9D153465A46294600209D
:1036D0000097FFF774FAFCF729FD0546FCF724FE76
:1036E0002078401E10F0FF01217001D1FFF762FC2D
:1036F000FCF72AFE2846FCF71DFD5FEA09402AD4A4
:10370000BDE8FC5FFDF7D0BEFCF71EFE2846BDE815
:10371000FC5FFCF70FBDFCF709FD0546FCF704FE56
:103720002078401E10F0FF0020700CD1FFF742FC03
:10373000B8F8000038B1FCF707FE2846FCF7FAFCA1
:10374000FFF706FC04E0FCF7FFFD2846FCF7F2FC5F
:1037500046F62D603080BDE8FC9F0000A4000020EC
:10376000F80000206800002010B5044600F050FA70
:1037700094F83600400704D42046BDE81040FFF717
:1037800055BB10BD2DE9F0410D460446FCF7CEFCBB
:103790000746FCF7C9FD00262E8094F8360008285D
:1037A00064D2DFE800F0040404040D394955FCF745
:1037B000CBFD3846FCF7BEFC47F25310288037E0BB
:1037C0002F4D2878401CC0B22870012801D1FFF786
:1037D000E3FBFCF7B9FD3846FCF7ACFC94F88A0033
:1037E000401E10F0FF0084F88A0004D184F836608F
:1037F0002046FFF7B9FFFCF799FC0446FCF794FD5F
:103800002878401E10F0FF01297001D1FFF7D2FB8C
:10381000FCF79AFD204609E094F88A00401E10F05B
:10382000FF0084F88A001BD101200EE0FCF782FC27
:10383000BDE8F041FDF738BE94F88A00401E10F054
:10384000FF0084F88A000BD1022084F8360007E0DC
:1038500094F88A00401E10F0FF0084F88A0003D01C
:10386000FCF772FD3846E1E70320EEE7FCF76CFD5C
:103870003846FCF75FFC46F62D602880BDE8F081F5
:10388000A4000020044808B50068FEF7E3F9694683
:103890000020FEF7E9F808BDF80000202DE9F84FF8
:1038A000984691468B460646FCF740FC0546FCF7D9
:1038B0003BFD594C2078401CC0B22070012801D13A
:1038C000FFF76AFBFCF740FD2846FCF733FC0EB916
:1038D000524806680020524FC6F84090A8F80000F1
:1038E00096F8360046F6C55A082872D2DFE800F08E
:1038F00033332F2F33332F2FFCF726FD2846FCF7C9
:1039000019FCFFF725FB04E0FCF71EFD2846FCF739
:1039100011FCA8F800A00020BDE8F88F6D1C7564AC
:10392000FCF704FC0646FCF7FFFC2078401E10F074
:10393000FF00207047D1FFF73DFB3888F0B3FCF75C
:1039400003FD3046FCF7F6FBFFF702FB62E096F85A
:103950003400072813D0756C681CDFD1FCF7E6FB38
:103960000546FCF7E1FC2078401E10F0FF002070B7
:10397000CAD1FFF71FFB38880028C5D0BCE7002359
:103980001A4631461846CDF80090FFF718F9756CC5
:10399000FCF7CCFB0646FCF7C7FC2078401E10F075
:1039A000FF00207001D1FFF705FBFCF7CDFC30468E
:1039B000FCF7C0FB5FEA0B402CD401E003E008E019
:1039C000FDF772FD26E0FCF7BFFC3046FCF7B2FBCA
:1039D00020E0FCF7ABFB0546FCF7A6FC2078401E78
:1039E00010F0FF0020700BD1FFF7E4FA388838B1EF
:1039F000FCF7AAFC2846FCF79DFBFFF7A9FA04E0B8
:103A0000FCF7A2FC2846FCF795FB46F62D60A8F8CB
:103A10000000002528467FE7A4000020F8000020D1
:103A2000680000202DE9F0410D460446FCF77EFBBE
:103A30000746FCF779FC334804B90468016832484A
:103A40008C4209D1017839B1FCF77EFC3846FCF78D
:103A500071FB46F6635052E00021298094F836103D
:103A60000126082944D2DFE801F0043133393B3B19
:103A70003B3B05460078401CC0B22870012801D1AC
:103A8000FFF78AFAFCF760FC3846FCF753FB04208A
:103A900084F8360084F88A602046FFF72FFAFCF796
:103AA00045FB0446FCF740FC2878401E10F0FF015F
:103AB000297001D1FFF77EFAFCF746FC4FEA0400BB
:103AC000FCF738FBBDE8F041FDF7EEBC052000E057
:103AD000062084F8360084F88A6005E00720F8E7BD
:103AE00014F88A0F401C2070FCF72EFC3846E7E7DC
:103AF000FCF72AFC3846FCF71DFB46F62D602880B3
:103B0000BDE8F081F8000020A400002010B50020DE
:103B10000146074C074B06E004EBC002401C116055
:103B20009180D18080B21A889042F5D310BD0000F8
:103B3000C82E0020F4470008F0B5324C47F27E262C
:103B400025680024042A08D0B1B32E4E082A36680E
:103B50000E440BD0C0E9136115E04A1B521E12F54A
:103B6000803F2AD8521CC0E913120CE0826C0A4430
:103B7000571B7F1E8F4201D2C26400E0C664C16C35
:103B80004A1B02658164204AC16C1288B1FBF2F6BF
:103B900002FB16111D4A89B202EBC102918889B15C
:103BA0001168F1B1CE6C761B0E65076DB74212D964
:103BB0004E6966B13146F5E7FFE7C4640465C46148
:103BC0001E80F0BD44618461012110600BE0C0E9FA
:103BD0000541486105E08D6975B1C0E90515686169
:103BE00088619188491C9180D58889B28D4200D224
:103BF000D180C2611C80F0BDC0E9051488611060ED
:103C0000EFE70000DC000020F4470008C82E002089
:103C100010B5C269002A15D00021016513688342DE
:103C200004D14369136033B1996104E0D0E90534EC
:103C3000636103B19C6141618161C161C16490882C
:103C4000401E908010BD000010B500200446064BB9
:103C5000064A04E003EBC001401CCC8080B211880E
:103C60008842F7D310BD0000C82E0020F44700089A
:103C70002DE9F05FFCF75AFA0446FCF755FB554D69
:103C80002878401CC1B22970012901D1FFF784F9BD
:103C9000FCF75AFB2046FCF74DFAFCF79FFBDFF8D8
:103CA000388107464D49D8F800004FF00009401C04
:103CB000C8F8000009884FF0030AB0FBF1F201FBDD
:103CC0001200474980B24FF0040B51F8304074B3F2
:103CD00094F836006669082851D2DFE800F05004F5
:103CE000501150295036E06CD8F80010421A226565
:103CF000884246D184F836902046FFF735FD3EE0F5
:103D0000E06CD8F80010421A2265884239D1C4F814
:103D10005C90A4F86090FCF761FB20642046FEF7FD
:103D200020FF2046FFF720FD84F8369023E028E0AE
:103D3000E06CD8F80010421A2265884221D184F83C
:103D400036B02046FFF764FF19E0E06CD8F80010A9
:103D5000421A2265884214D1C4F85C90A4F860909D
:103D6000FCF73CFB20642046FEF7FBFE2046FFF7F5
:103D70004FFF84F836B084F835A084F83490344688
:103D8000A5E7FCF72BFB1749C01B0A68824200D24B
:103D90000860FCF7CBF90446FCF7C6FA2878401E09
:103DA00010F0FF0129700DD1FFF704F90E480088CB
:103DB00040B1FCF7C9FA2046FCF7BCF9BDE8F05F5A
:103DC000FFF7C6B8FCF7C0FA2046BDE8F05FFCF785
:103DD000B1B90000A4000020DC000020F447000876
:103DE000C82E0020E0000020680000201CB5084C10
:103DF00000216B4601AA0846FDF734FFBDF800001C
:103E00000028F5D120780128F2D1FFF731FFEFE744
:103E10005C00002030B504461A4889B000250560D2
:103E200019480560FFF772FE1848016841B118494A
:103E3000184B0A681B689A4205D247F2132008E023
:103E400047F2122005E0144A13781F2B04D347F2DF
:103E50001120208009B030BD0B2305950695CDE9D2
:103E600007340E4B096800681B68CDE90103CDE9F2
:103E70000315107800900023094A0AA10E48FDF7A7
:103E8000EFFCE7E7DC000020E0000020E847000846
:103E9000F0470008DC470008E4470008EC4700084A
:103EA000ED3D000875432F4F532D49494920546972
:103EB000636B205461736B00BC35002030B52A4A17
:103EC00089B00021294B1160294C2A4A1D681DB177
:103ED0002468B4FBF5F303E023680A24B3FBF4F38E
:103EE00013601A46244B274D274C1A60234A116051
:103EF000234A1160002206E005EBC203521C9980A0
:103F0000D98092B2196023889A42F5D31F4B1A6860
:103F100042B11F4A1F4D14682D68AC4205D247F2CA
:103F2000483108E047F2473105E01B4C25781F2D4A
:103F300004D347F24631018009B030BD0B2505910D
:103F40000691CDE907501068144A1B681268CDE944
:103F50000301CDE90132207800900023104A11A11D
:103F60001648FDF77DFCE7E7E4000020F84700086D
:103F7000E0470008F0000020F4000020EC000020E2
:103F8000E80000205031002008480008FC470008E5
:103F900004480008DC470008F6470008004800080D
:103FA0008140000875432F4F532D494949205469DA
:103FB0006D6572205461736B000000008436002030
:103FC00070B5022280F82A20204A012914681ED0E8
:103FD000016AE1B11E4A214481611288B1FBF2F30A
:103FE00002FB13121B4B92B203EBC20200231568B3
:103FF0007DB1091BC1611168D1B18D692D1BCD61E6
:10400000C669AE420ED90D6945B12946F5E7416A48
:10401000E0E703614361106001200BE0C0E9043177
:10402000086105E04C6964B1C0E90414206148618D
:104030009088401C9080D18880B2814200D2D0808C
:1040400070BDC0E9041348611060F1E7EC00002086
:10405000084800085031002010B500200446064BE7
:10406000064A04E003EBC001401CCC8080B21188FA
:104070008842F7D310BD00005031002008480008E6
:104080001CB5DFF89090DFF890A0244DDFF890B0D9
:1040900000216B4601AA0846FDF7E4FD6846FDF7DE
:1040A00041FAFCF79BF9064628684FF00308401CCC
:1040B0002860B9F80010B0FBF1F201FB120080B2E9
:1040C0005AF83040C4B1A06929682769884213D1E1
:1040D000204600F027F8208D022808D084F82A8096
:1040E000A26812B12046E16890473C46EAE7012108
:1040F0002046FFF765FFF3E7FCF770F9841B68467D
:10410000FDF76AFADBF80010A142C1D2CBF80040FB
:10411000BEE700000848000850310020EC000020F5
:10412000E800002010B5104A81691288B1FBF2F353
:1041300002FB13110D4A89B202EBC102002314687D
:104140000169844203D1116029B14B6103E04469E4
:10415000216101B14C61012180F82A1003614361A2
:104160009088401E908010BD084800085031002003
:10417000704730B58FB028216846FBF7F4FF142153
:104180000AA8FBF7F0FF01210804CDE90010002484
:10419000029402250491CDE907504FF4E0100990F4
:1041A0006846FCF701FC0F20CDE90A056802CDE95D
:1041B0000C4002210AA80E94FCF714FB0FB030BD8E
:1041C000704710B5406A0021C185C184FCF791FD9C
:1041D00010BD01680C3151E8002F22F4907241E8C3
:1041E0000023002BF5D10168143151E8002F22F093
:1041F000010241E80023002BF5D1016B012909D10F
:1042000001680C3151E8002F22F0100241E8002330
:10421000002BF5D1202180F8421000210163704766
:1042200008B590F84210222901D0022008BD82680A
:104230004FF480539A4201D1016921B1816A9A42B7
:104240001BD04AB10AE00268816A5268C2F30802D0
:104250000A80816A891C08E0026972B102685268AA
:1042600002F07F020A70816A491C8162C18D491E79
:104270000904090CC18503D01BE002685268F1E70C
:104280000168CA6822F02002CA600168CA6822F484
:104290008072CA6001684A6922F001024A612021E5
:1042A00080F8421000214163026B012A03D0FCF721
:1042B000C9FE002008BD016301680C3151E8002FE0
:1042C00022F0100241E80023002BF5D101680A68B2
:1042D000D20602D50A6849680091818DFCF708FD75
:1042E000E7E7000070B5044600680169E26821F460
:1042F0004051114301612169A06808436169084385
:104300002168CA6841F20C639A430243CA6020687C
:104310004169A26921F44071114341611E4920683D
:10432000884202D1FCF70AFB01E0FCF7F7FA00EB48
:10433000C00101EB0012606864218000B2FBF0F361
:10434000B3FBF1F36FF018067343B2FBF0F5B2FB69
:10435000F0F605EB8305322303EB0515B5FBF1F50C
:10436000B6FBF1F605F0F00505EB0615B2FBF0F62D
:10437000B2FBF0F0B0FBF1F06FF01802504306EB27
:10438000800003EB0010B0FBF1F0216800F00F009B
:104390002844886070BD0000003801402DE9F843D2
:1043A000984617460D460446089E24E0701C22D00D
:1043B000FCF782F9A0EB0800B0421AD8CEB1206811
:1043C000C168490717D5802D15D0402D13D001683D
:1043D000C94309070FD401680025406800902046B2
:1043E000FFF7F7FE0820606484F840500120BDE824
:1043F000F8830320FBE72068006835EA000004D05A
:104400000020B842D2D00020F1E70120F9E70000F7
:104410000148FCF76FBC0000A8080020FEE7000080
:10442000014A024900F023B8914400080401002029
:104430000907090E002804DB00F1E02080F80014D1
:10444000704700F00F0000F1E02080F8141D704765
:1044500002E008C8121F08C1002AFAD1704770474D
:10446000002001E001C1121F002AFBD170472DE995
:10447000F04116460F460446002503E03946B04792
:10448000641C6D1C20780028F8D12846BDE8F08116
:1044900013B54FF6FF73012269460248FCF7D3FDBE
:1044A00000981CBDA80800200EB5FBF7BBFEFBF76B
:1044B000D1FEFCF783FE02A8FDF770F9FBF716FFAB
:1044C0000E4E002502AC002208213046FCF7EEF823
:1044D0000023CDE90054032219461846FDF7DCFD00
:1044E000012208213046FCF7E1F80023CDE9005411
:1044F000032219461846FDF7CFFDE4E70008014006
:104500000EB5FBF78FFEFBF7A5FEFCF757FE02A8E2
:10451000FDF744F9FBF7EAFE0F4F002502AC4FF41C
:104520000056002231463846FCF7C0F80023CDE99A
:104530000054012219461846FDF7AEFD012231460E
:104540003846FCF7B3F80023CDE9005401221946A0
:104550001846FDF7A1FDE4E70010014010B58AB050
:1045600009A8FCF77DFEFCF7ADF8FFF702FEFCF7AB
:1045700003FE002006AB09AA0321059083E807008B
:1045800060220923094CCDE90232CDE900140490E0
:104590000346074A07A104F59060FDF761F909A8F1
:1045A000FDF754F80AB0002010BD000008010020FB
:1045B0001D4600087374617274207461736B00008F
:1045C0000EB5FBF72FFEFBF745FEFCF7F7FD02A843
:1045D000FDF7E4F8FBF78AFE002402AD05A0FFF723
:1045E0001FFF0023022219461846CDE90045FDF7BA
:1045F00053FDF3E768656C6C6F2075632F4F532193
:1046000020BBB6D3ADC0B4B5BD52544F53B6E0C80D
:10461000CECEF1BBB7BEB3200D0A00002DE9F043AA
:104620008BB0FBF7FFFD09A8FDF7B8F8FBF75EFEBE
:10463000012109AA0846FCF7A3FFFBF777FD044612
:10464000FBF772FEDFF8E09099F80000401CC2B260
:1046500089F80020012A01D1FEF79EFCFBF774FEC9
:104660002046FBF767FD00244FF00308CDE906481C
:1046700009AE2E4801A94027062508960594049402
:1046800081E8A100042000902346294A29A12C4852
:10469000FDF7E6F8CDE906482A4801A908960594F1
:1046A000049481E8A1000023274A28A100F5567050
:1046B0000095FDF7D5F8CDE90648264801A90896EA
:1046C0000594049481E8A100052000901C48002373
:1046D000214A22A1C830FDF7C3F8194809A9C838F2
:1046E000FFF7A0F9FBF722FD0446FBF71DFE99F842
:1046F0000000401E10F0FF0289F800200ED1FEF7E6
:1047000059FC1948008848B1FBF71EFE2046FBF70C
:1047100011FDFEF71DFC0BB0BDE8F083FBF714FEA6
:104720002046FBF707FDF6E7A400002088020020E2
:10473000014500086C65645F706331330000000060
:104740005006002088040020A94400086C65645FBE
:104750007061330088030020C145000873656E64F2
:104760005F6D736700000000680000200102020313
:104770000405060708090A0B0C0D0E0F10100000A7
:104780000000000000000102030406070809000001
:104790000000010203040000481D00200C0000007E
:1047A00080000000481F00200A0000008820002030
:1047B0000C00000080000000882200208000000023
:1047C00064000000882400200B0000000A000000A4
:1047D000C82A00200C0000008000000040000000FB
:1047E000E80300000A000000C82C00200C000000B4
:1047F0008000000011000B000A000000502F002074
:104800000C00000080000000110000002C4800088F
:10481000000000200801000050440008344900084E
:1048200008010020483A0000604400080100000030
:10483000100000000000000000127A0000000000DC
:104840000000000000000000000000000000000068
:104850000000000000000000000000000000000058
:104860000000000000000000000000000000000048
:104870000000000000000000000000000000000038
:104880000000000000000000000000000000000028
:104890000000000000000000000000000000000018
:1048A0000000000000000000000000000000000008
:1048B00000000000000000000000000000000000F8
:1048C00000000000000000000000000000000000E8
:1048D00000000000000000000000000000000000D8
:1048E00000000000000000000000000000000000C8
:1048F00000000000000000000000000000000000B8
:1049000000000000000000000000000000000000A7
:104910000000000000000000000000000000000097
:104920000000000000000000000000000000000087
:044930000000000083
:04000005080000ED02
:00000001FF
